{
  "contractName": "Election",
  "abi": [
    {
      "constant": true,
      "inputs": [],
      "name": "candidatesCount",
      "outputs": [
        {
          "name": "",
          "type": "uint256"
        }
      ],
      "payable": false,
      "stateMutability": "view",
      "type": "function"
    },
    {
      "constant": true,
      "inputs": [
        {
          "name": "",
          "type": "uint256"
        }
      ],
      "name": "candidates",
      "outputs": [
        {
          "name": "id",
          "type": "uint256"
        },
        {
          "name": "name",
          "type": "string"
        },
        {
          "name": "voteCount",
          "type": "uint256"
        }
      ],
      "payable": false,
      "stateMutability": "view",
      "type": "function"
    },
    {
      "constant": true,
      "inputs": [
        {
          "name": "",
          "type": "address"
        }
      ],
      "name": "voters",
      "outputs": [
        {
          "name": "",
          "type": "bool"
        }
      ],
      "payable": false,
      "stateMutability": "view",
      "type": "function"
    },
    {
      "inputs": [],
      "payable": false,
      "stateMutability": "nonpayable",
      "type": "constructor"
    },
    {
      "anonymous": false,
      "inputs": [
        {
          "indexed": true,
          "name": "_candidateId",
          "type": "uint256"
        }
      ],
      "name": "votedEvent",
      "type": "event"
    },
    {
      "constant": false,
      "inputs": [
        {
          "name": "_candidateId",
          "type": "uint256"
        }
      ],
      "name": "vote",
      "outputs": [],
      "payable": false,
      "stateMutability": "nonpayable",
      "type": "function"
    }
  ],
  "bytecode": "0x6060604052341561000f57600080fd5b6100606040805190810160405280600b81526020017f43616e64696461746520310000000000000000000000000000000000000000008152506100b6640100000000026103b8176401000000009004565b6100b16040805190810160405280600b81526020017f43616e64696461746520320000000000000000000000000000000000000000008152506100b6640100000000026103b8176401000000009004565b6101d8565b60026000815480929190600101919050555060606040519081016040528060025481526020018281526020016000815250600160006002548152602001908152602001600020600082015181600001556020820151816001019080519060200190610122929190610133565b506040820151816002015590505050565b828054600181600116156101000203166002900490600052602060002090601f016020900481019282601f1061017457805160ff19168380011785556101a2565b828001600101855582156101a2579182015b828111156101a1578251825591602001919060010190610186565b5b5090506101af91906101b3565b5090565b6101d591905b808211156101d15760008160009055506001016101b9565b5090565b90565b610506806101e76000396000f300606060405260043610610062576000357c0100000000000000000000000000000000000000000000000000000000900463ffffffff1680630121b93f146100675780632d35a8a21461008a5780633477ee2e146100b3578063a3ec138d1461015d575b600080fd5b341561007257600080fd5b61008860048080359060200190919050506101ae565b005b341561009557600080fd5b61009d6102d0565b6040518082815260200191505060405180910390f35b34156100be57600080fd5b6100d460048080359060200190919050506102d6565b6040518084815260200180602001838152602001828103825284818151815260200191508051906020019080838360005b83811015610120578082015181840152602081019050610105565b50505050905090810190601f16801561014d5780820380516001836020036101000a031916815260200191505b5094505050505060405180910390f35b341561016857600080fd5b610194600480803573ffffffffffffffffffffffffffffffffffffffff16906020019091905050610398565b604051808215151515815260200191505060405180910390f35b6000803373ffffffffffffffffffffffffffffffffffffffff1673ffffffffffffffffffffffffffffffffffffffff16815260200190815260200160002060009054906101000a900460ff1615151561020657600080fd5b60008111801561021857506002548111155b151561022357600080fd5b60016000803373ffffffffffffffffffffffffffffffffffffffff1673ffffffffffffffffffffffffffffffffffffffff16815260200190815260200160002060006101000a81548160ff0219169083151502179055506001600082815260200190815260200160002060020160008154809291906001019190505550807ffff3c900d938d21d0990d786e819f29b8d05c1ef587b462b939609625b684b1660405160405180910390a250565b60025481565b6001602052806000526040600020600091509050806000015490806001018054600181600116156101000203166002900480601f0160208091040260200160405190810160405280929190818152602001828054600181600116156101000203166002900480156103885780601f1061035d57610100808354040283529160200191610388565b820191906000526020600020905b81548152906001019060200180831161036b57829003601f168201915b5050505050908060020154905083565b60006020528060005260406000206000915054906101000a900460ff1681565b60026000815480929190600101919050555060606040519081016040528060025481526020018281526020016000815250600160006002548152602001908152602001600020600082015181600001556020820151816001019080519060200190610424929190610435565b506040820151816002015590505050565b828054600181600116156101000203166002900490600052602060002090601f016020900481019282601f1061047657805160ff19168380011785556104a4565b828001600101855582156104a4579182015b828111156104a3578251825591602001919060010190610488565b5b5090506104b191906104b5565b5090565b6104d791905b808211156104d35760008160009055506001016104bb565b5090565b905600a165627a7a72305820447b3445f27ca00bf6a296b866256889c36d00fe21642eeacc8f1254aa4e723e0029",
  "source": "pragma solidity ^0.4.2;\r\n/**\r\n * The Election contract does this and that...\r\n */\r\ncontract Election {\r\n\t\r\n\r\n\tstruct Candidate {\r\n\t\tuint id;\r\n\t\tstring name;\r\n\t\tuint voteCount;\r\n\t\t\r\n\t}\r\n\t\r\n\r\n\tmapping (address => bool) public voters;\r\n\t\r\n\r\n\r\n\r\n\r\n\tmapping (uint => Candidate) public candidates;\r\n\t\r\n\r\n\tuint public candidatesCount;\r\n\r\n\r\n\tevent votedEvent(uint indexed _candidateId);\r\n\t\r\n\r\n\r\n\tfunction Election () public {\r\n\t\taddCandidate(\"Candidate 1\");\r\n\t\taddCandidate(\"Candidate 2\");\r\n\t}\t\r\n\r\n\r\n\tfunction addCandidate (string _name) private {\r\n\t\tcandidatesCount ++ ;\r\n\t\tcandidates[candidatesCount] = Candidate(candidatesCount, _name, 0);\r\n\t\t\r\n\t}\r\n\t\r\n\r\n\tfunction vote(uint _candidateId) public {\r\n\r\n\r\n\t\t\r\n\t\trequire (!voters[msg.sender]);\r\n\r\n\t\trequire (_candidateId > 0 && _candidateId <= candidatesCount);\r\n\t\t\r\n// \t\tso we can log who has voted\r\n\t\tvoters[msg.sender]= true;\r\n\r\n\r\n\r\n\r\n\t\tcandidates[_candidateId].voteCount ++ ;\r\n\r\n\t\tvotedEvent(_candidateId);\r\n\t}\r\n\r\n\r\n\r\n}\r\n",
  "sourcePath": "C:\\Users\\pooria\\Desktop\\Election-with-block-chain\\contracts\\Election.sol",
  "compiler": {
    "name": "solc",
    "version": "0.4.21+commit.dfe3193c.Emscripten.clang"
  },
  "schemaVersion": "2.0.0",
  "updatedAt": "2018-04-20T08:34:43.874Z"
}